{
  "_format": "hh-sol-artifact-1",
  "contractName": "NFTRental",
  "sourceName": "contracts/NFTRental.sol",
  "abi": [
    {
      "anonymous": false,
      "inputs": [
        {
          "indexed": true,
          "internalType": "address",
          "name": "nftContract",
          "type": "address"
        },
        {
          "indexed": true,
          "internalType": "uint256",
          "name": "tokenId",
          "type": "uint256"
        },
        {
          "indexed": false,
          "internalType": "uint256",
          "name": "pricePerDay",
          "type": "uint256"
        },
        {
          "indexed": false,
          "internalType": "uint256",
          "name": "maxDuration",
          "type": "uint256"
        }
      ],
      "name": "NFTListed",
      "type": "event"
    },
    {
      "anonymous": false,
      "inputs": [
        {
          "indexed": true,
          "internalType": "address",
          "name": "nftContract",
          "type": "address"
        },
        {
          "indexed": true,
          "internalType": "uint256",
          "name": "tokenId",
          "type": "uint256"
        },
        {
          "indexed": true,
          "internalType": "address",
          "name": "renter",
          "type": "address"
        },
        {
          "indexed": false,
          "internalType": "uint256",
          "name": "duration",
          "type": "uint256"
        }
      ],
      "name": "NFTRented",
      "type": "event"
    },
    {
      "anonymous": false,
      "inputs": [
        {
          "indexed": true,
          "internalType": "address",
          "name": "nftContract",
          "type": "address"
        },
        {
          "indexed": true,
          "internalType": "uint256",
          "name": "tokenId",
          "type": "uint256"
        }
      ],
      "name": "NFTUnlisted",
      "type": "event"
    },
    {
      "anonymous": false,
      "inputs": [
        {
          "indexed": true,
          "internalType": "address",
          "name": "previousOwner",
          "type": "address"
        },
        {
          "indexed": true,
          "internalType": "address",
          "name": "newOwner",
          "type": "address"
        }
      ],
      "name": "OwnershipTransferred",
      "type": "event"
    },
    {
      "anonymous": false,
      "inputs": [
        {
          "indexed": true,
          "internalType": "address",
          "name": "nftContract",
          "type": "address"
        },
        {
          "indexed": true,
          "internalType": "uint256",
          "name": "tokenId",
          "type": "uint256"
        }
      ],
      "name": "RentalEnded",
      "type": "event"
    },
    {
      "inputs": [
        {
          "internalType": "address",
          "name": "",
          "type": "address"
        },
        {
          "internalType": "uint256",
          "name": "",
          "type": "uint256"
        }
      ],
      "name": "currentRenter",
      "outputs": [
        {
          "internalType": "address",
          "name": "",
          "type": "address"
        }
      ],
      "stateMutability": "view",
      "type": "function"
    },
    {
      "inputs": [
        {
          "internalType": "address",
          "name": "nftContract",
          "type": "address"
        },
        {
          "internalType": "uint256",
          "name": "tokenId",
          "type": "uint256"
        }
      ],
      "name": "endRental",
      "outputs": [],
      "stateMutability": "nonpayable",
      "type": "function"
    },
    {
      "inputs": [],
      "name": "getActiveListings",
      "outputs": [
        {
          "internalType": "address[]",
          "name": "contracts",
          "type": "address[]"
        },
        {
          "internalType": "uint256[][]",
          "name": "tokenIds",
          "type": "uint256[][]"
        }
      ],
      "stateMutability": "view",
      "type": "function"
    },
    {
      "inputs": [
        {
          "internalType": "address",
          "name": "nftContract",
          "type": "address"
        },
        {
          "internalType": "uint256",
          "name": "tokenId",
          "type": "uint256"
        }
      ],
      "name": "getRentalInfo",
      "outputs": [
        {
          "internalType": "address",
          "name": "owner",
          "type": "address"
        },
        {
          "internalType": "uint256",
          "name": "pricePerDay",
          "type": "uint256"
        },
        {
          "internalType": "uint256",
          "name": "maxDuration",
          "type": "uint256"
        },
        {
          "internalType": "bool",
          "name": "isActive",
          "type": "bool"
        },
        {
          "internalType": "address",
          "name": "renter",
          "type": "address"
        },
        {
          "internalType": "uint256",
          "name": "endTime",
          "type": "uint256"
        }
      ],
      "stateMutability": "view",
      "type": "function"
    },
    {
      "inputs": [
        {
          "internalType": "address",
          "name": "userAddress",
          "type": "address"
        }
      ],
      "name": "getUserListings",
      "outputs": [
        {
          "internalType": "address[]",
          "name": "contracts",
          "type": "address[]"
        },
        {
          "internalType": "uint256[][]",
          "name": "tokenIds",
          "type": "uint256[][]"
        }
      ],
      "stateMutability": "view",
      "type": "function"
    },
    {
      "inputs": [
        {
          "internalType": "address",
          "name": "nftContract",
          "type": "address"
        },
        {
          "internalType": "uint256",
          "name": "tokenId",
          "type": "uint256"
        }
      ],
      "name": "isAvailableForRent",
      "outputs": [
        {
          "internalType": "bool",
          "name": "",
          "type": "bool"
        }
      ],
      "stateMutability": "view",
      "type": "function"
    },
    {
      "inputs": [
        {
          "internalType": "address",
          "name": "nftContract",
          "type": "address"
        },
        {
          "internalType": "uint256",
          "name": "tokenId",
          "type": "uint256"
        },
        {
          "internalType": "uint256",
          "name": "pricePerDay",
          "type": "uint256"
        },
        {
          "internalType": "uint256",
          "name": "maxDuration",
          "type": "uint256"
        }
      ],
      "name": "listNFT",
      "outputs": [],
      "stateMutability": "nonpayable",
      "type": "function"
    },
    {
      "inputs": [
        {
          "internalType": "uint256",
          "name": "",
          "type": "uint256"
        }
      ],
      "name": "listedContracts",
      "outputs": [
        {
          "internalType": "address",
          "name": "",
          "type": "address"
        }
      ],
      "stateMutability": "view",
      "type": "function"
    },
    {
      "inputs": [
        {
          "internalType": "address",
          "name": "",
          "type": "address"
        },
        {
          "internalType": "uint256",
          "name": "",
          "type": "uint256"
        }
      ],
      "name": "listedTokenIds",
      "outputs": [
        {
          "internalType": "uint256",
          "name": "",
          "type": "uint256"
        }
      ],
      "stateMutability": "view",
      "type": "function"
    },
    {
      "inputs": [
        {
          "internalType": "address",
          "name": "",
          "type": "address"
        },
        {
          "internalType": "uint256",
          "name": "",
          "type": "uint256"
        }
      ],
      "name": "listings",
      "outputs": [
        {
          "internalType": "address",
          "name": "owner",
          "type": "address"
        },
        {
          "internalType": "uint256",
          "name": "pricePerDay",
          "type": "uint256"
        },
        {
          "internalType": "uint256",
          "name": "maxDuration",
          "type": "uint256"
        },
        {
          "internalType": "bool",
          "name": "isActive",
          "type": "bool"
        }
      ],
      "stateMutability": "view",
      "type": "function"
    },
    {
      "inputs": [],
      "name": "owner",
      "outputs": [
        {
          "internalType": "address",
          "name": "",
          "type": "address"
        }
      ],
      "stateMutability": "view",
      "type": "function"
    },
    {
      "inputs": [],
      "name": "renounceOwnership",
      "outputs": [],
      "stateMutability": "nonpayable",
      "type": "function"
    },
    {
      "inputs": [
        {
          "internalType": "address",
          "name": "nftContract",
          "type": "address"
        },
        {
          "internalType": "uint256",
          "name": "tokenId",
          "type": "uint256"
        },
        {
          "internalType": "uint256",
          "name": "duration",
          "type": "uint256"
        }
      ],
      "name": "rentNFT",
      "outputs": [],
      "stateMutability": "payable",
      "type": "function"
    },
    {
      "inputs": [
        {
          "internalType": "address",
          "name": "",
          "type": "address"
        },
        {
          "internalType": "uint256",
          "name": "",
          "type": "uint256"
        }
      ],
      "name": "rentalEndTime",
      "outputs": [
        {
          "internalType": "uint256",
          "name": "",
          "type": "uint256"
        }
      ],
      "stateMutability": "view",
      "type": "function"
    },
    {
      "inputs": [
        {
          "internalType": "address",
          "name": "newOwner",
          "type": "address"
        }
      ],
      "name": "transferOwnership",
      "outputs": [],
      "stateMutability": "nonpayable",
      "type": "function"
    },
    {
      "inputs": [
        {
          "internalType": "address",
          "name": "nftContract",
          "type": "address"
        },
        {
          "internalType": "uint256",
          "name": "tokenId",
          "type": "uint256"
        }
      ],
      "name": "unlistNFT",
      "outputs": [],
      "stateMutability": "nonpayable",
      "type": "function"
    }
  ],
  "bytecode": "0x608060405234801561001057600080fd5b50600160005561001f33610024565b610076565b600180546001600160a01b038381166001600160a01b0319831681179093556040519116919082907f8be0079c531659141344cd1fd0a4f28419497f9722a3daafe3b4186f6b6457e090600090a35050565b6119b8806100856000396000f3fe6080604052600436106100f25760003560e01c806387c35bc01161008a578063eb18a9d811610059578063eb18a9d8146103d1578063ef00df76146103f1578063f2fde38b14610432578063f33d8b591461045257600080fd5b806387c35bc0146103495780638da5cb5b1461036c578063d68a36ff1461039e578063e428c59e146103b157600080fd5b80633ec966ad116100c65780633ec966ad14610209578063715018a6146102f45780637fc27efd1461030957806381a2ef921461032957600080fd5b806207df30146100f75780631157decb14610181578063205a2bc1146101a35780633c44a5f0146101e9575b600080fd5b34801561010357600080fd5b50610150610112366004611740565b6003602081815260009384526040808520909152918352912080546001820154600283015492909301546001600160a01b0390911692919060ff1684565b604080516001600160a01b039095168552602085019390935291830152151560608201526080015b60405180910390f35b34801561018d57600080fd5b506101a161019c366004611740565b610482565b005b3480156101af57600080fd5b506101db6101be366004611740565b600560209081526000928352604080842090915290825290205481565b604051908152602001610178565b3480156101f557600080fd5b506101a161020436600461176c565b6105d2565b34801561021557600080fd5b506102b5610224366004611740565b6001600160a01b039182166000818152600360208181526040808420868552825280842081516080810183528154891680825260018301548286018190526002840154838601819052939096015460ff161515606090920182905287875260048552838720898852855283872054978752600585528387209887529790935293205494969195929490939092169190565b604080516001600160a01b03978816815260208101969096528501939093529015156060840152909216608082015260a081019190915260c001610178565b34801561030057600080fd5b506101a16108db565b34801561031557600080fd5b506101a1610324366004611740565b6108ef565b34801561033557600080fd5b506101db610344366004611740565b610a36565b34801561035557600080fd5b5061035e610a67565b6040516101789291906117a7565b34801561037857600080fd5b506001546001600160a01b03165b6040516001600160a01b039091168152602001610178565b6101a16103ac36600461186e565b610db8565b3480156103bd57600080fd5b506103866103cc3660046118a3565b61104f565b3480156103dd57600080fd5b5061035e6103ec3660046118bc565b611079565b3480156103fd57600080fd5b5061038661040c366004611740565b60046020908152600092835260408084209091529082529020546001600160a01b031681565b34801561043e57600080fd5b506101a161044d3660046118bc565b61154d565b34801561045e57600080fd5b5061047261046d366004611740565b6115c6565b6040519015158152602001610178565b6001600160a01b03821660009081526005602090815260408083208484529091529020544210156104fa5760405162461bcd60e51b815260206004820152601760248201527f52656e74616c20706572696f64206e6f7420656e64656400000000000000000060448201526064015b60405180910390fd5b6001600160a01b038281166000908152600460209081526040808320858452909152902054166105605760405162461bcd60e51b8152602060048201526011602482015270139195081a5cc81b9bdd081c995b9d1959607a1b60448201526064016104f1565b6001600160a01b0382166000818152600460209081526040808320858452825280832080546001600160a01b031916905583835260058252808320858452909152808220829055518392917ff930704665fcf9291bccc9facd2f7f348b88a9047c3d24fb4e71a923097ffa7091a35050565b6040516331a9108f60e11b81526004810184905233906001600160a01b03861690636352211e90602401602060405180830381865afa158015610619573d6000803e3d6000fd5b505050506040513d601f19601f8201168201806040525081019061063d91906118e0565b6001600160a01b0316146106835760405162461bcd60e51b815260206004820152600d60248201526c2737ba103a34329037bbb732b960991b60448201526064016104f1565b600082116106d35760405162461bcd60e51b815260206004820152601c60248201527f5072696365206d7573742062652067726561746572207468616e20300000000060448201526064016104f1565b600081116107235760405162461bcd60e51b815260206004820152601f60248201527f4475726174696f6e206d7573742062652067726561746572207468616e20300060448201526064016104f1565b6001600160a01b03848116600090815260046020908152604080832087845290915290205416156107905760405162461bcd60e51b8152602060048201526017602482015276139195081a5cc818dd5c9c995b9d1b1e481c995b9d1959604a1b60448201526064016104f1565b6040805160808101825233815260208082018581528284018581526001606085018181526001600160a01b038b8116600081815260038089528a82208e835289528a822099518a546001600160a01b0319169416939093178955955193880193909355925160028701555194909101805460ff1916941515949094179093559182526007905290812054900361086c57600680546001810182556000919091527ff652222313e28459528d920b65115c16c04f3efc82aaedc97be59f3f377c0d3f0180546001600160a01b0319166001600160a01b0386161790555b6001600160a01b038416600081815260076020908152604080832080546001810182559084529282902090920186905581518581529081018490528592917f72c6b00617fb9c6ec35f606798d02888460a1dd9bb2cce22abd49ee21a0ee816910160405180910390a350505050565b6108e3611626565b6108ed6000611680565b565b6001600160a01b0382811660009081526003602090815260408083208584529091529020541633146109535760405162461bcd60e51b815260206004820152600d60248201526c2737ba103a34329037bbb732b960991b60448201526064016104f1565b6001600160a01b03828116600090815260046020908152604080832085845290915290205416156109c05760405162461bcd60e51b8152602060048201526017602482015276139195081a5cc818dd5c9c995b9d1b1e481c995b9d1959604a1b60448201526064016104f1565b6001600160a01b038216600081815260036020818152604080842086855290915280832080546001600160a01b03191681556001810184905560028101849055909101805460ff19169055518392917f8a7922f72dc2a50a632acdde12b7d222aefa2fdb7f3ca1364b419734569d0e8091a35050565b60076020528160005260406000208181548110610a5257600080fd5b90600052602060002001600091509150505481565b600654606090819067ffffffffffffffff811115610a8757610a876118fd565b604051908082528060200260200182016040528015610ab0578160200160208202803683370190505b5060065490925067ffffffffffffffff811115610acf57610acf6118fd565b604051908082528060200260200182016040528015610b0257816020015b6060815260200190600190039081610aed5790505b50905060005b600654811015610db357600060068281548110610b2757610b27611913565b60009182526020808320909101546001600160a01b031680835260078252604080842080548251818602810186019093528083529295509092909190830182828015610b9257602002820191906000526020600020905b815481526020019060010190808311610b7e575b505050505090506000815167ffffffffffffffff811115610bb557610bb56118fd565b604051908082528060200260200182016040528015610bde578160200160208202803683370190505b5090506000805b8351811015610cad576000848281518110610c0257610c02611913565b6020908102919091018101516001600160a01b0388166000908152600380845260408083208484529094529290209091015490915060ff168015610c6957506001600160a01b03868116600090815260046020908152604080832085845290915290205416155b15610c9a5780848481518110610c8157610c81611913565b602090810291909101015282610c968161193f565b9350505b5080610ca58161193f565b915050610be5565b5060008167ffffffffffffffff811115610cc957610cc96118fd565b604051908082528060200260200182016040528015610cf2578160200160208202803683370190505b50905060005b82811015610d4957838181518110610d1257610d12611913565b6020026020010151828281518110610d2c57610d2c611913565b602090810291909101015280610d418161193f565b915050610cf8565b5084888781518110610d5d57610d5d611913565b60200260200101906001600160a01b031690816001600160a01b03168152505080878781518110610d9057610d90611913565b602002602001018190525050505050508080610dab9061193f565b915050610b08565b509091565b610dc06116d2565b6001600160a01b03831660009081526003602081815260408084208685529091529091209081015460ff16610e375760405162461bcd60e51b815260206004820152601760248201527f4e4654206e6f74206c697374656420666f722072656e7400000000000000000060448201526064016104f1565b8060020154821115610e8b5760405162461bcd60e51b815260206004820152601860248201527f4475726174696f6e2065786365656473206d6178696d756d000000000000000060448201526064016104f1565b818160010154610e9b9190611958565b341015610ee15760405162461bcd60e51b8152602060048201526014602482015273125b9cdd59999a58da595b9d081c185e5b595b9d60621b60448201526064016104f1565b6001600160a01b0384811660009081526004602090815260408083208784529091529020541615610f4c5760405162461bcd60e51b8152602060048201526015602482015274139195081a5cc8185b1c9958591e481c995b9d1959605a1b60448201526064016104f1565b6001600160a01b0384166000908152600460209081526040808320868452909152902080546001600160a01b03191633179055610f8c8262015180611958565b610f96904261196f565b6001600160a01b038086166000908152600560209081526040808320888452909152808220939093558354925192909116913480156108fc0292909190818181858888f19350505050158015610ff0573d6000803e3d6000fd5b50336001600160a01b031683856001600160a01b03167f4f4ab304d681e6f116067260164b7bfda1f47a254834cc6320cf5f8f0a4361088560405161103791815260200190565b60405180910390a45061104a6001600055565b505050565b6006818154811061105f57600080fd5b6000918252602090912001546001600160a01b0316905081565b6060806000805b6006548110156111e95760006006828154811061109f5761109f611913565b60009182526020808320909101546001600160a01b03168083526007825260408084208054825181860281018601909352808352929550909290919083018282801561110a57602002820191906000526020600020905b8154815260200190600101908083116110f6575b505050505090506000805b82518110156111be57600083828151811061113257611132611913565b6020908102919091018101516001600160a01b03878116600090815260038452604080822084835290945292909220549092508116908b1614801561119c57506001600160a01b0385166000908152600360208181526040808420858552909152909120015460ff165b156111ab5760019250506111be565b50806111b68161193f565b915050611115565b5080156111d357846111cf8161193f565b9550505b50505080806111e19061193f565b915050611080565b508067ffffffffffffffff811115611203576112036118fd565b60405190808252806020026020018201604052801561122c578160200160208202803683370190505b5092508067ffffffffffffffff811115611248576112486118fd565b60405190808252806020026020018201604052801561127b57816020015b60608152602001906001900390816112665790505b5091506000805b600654811015611545576000600682815481106112a1576112a1611913565b60009182526020808320909101546001600160a01b03168083526007825260408084208054825181860281018601909352808352929550909290919083018282801561130c57602002820191906000526020600020905b8154815260200190600101908083116112f8575b505050505090506000815167ffffffffffffffff81111561132f5761132f6118fd565b604051908082528060200260200182016040528015611358578160200160208202803683370190505b5090506000805b835181101561142a57600084828151811061137c5761137c611913565b6020908102919091018101516001600160a01b03888116600090815260038452604080822084835290945292909220549092508116908d161480156113e657506001600160a01b0386166000908152600360208181526040808420858552909152909120015460ff165b1561141757808484815181106113fe576113fe611913565b6020908102919091010152826114138161193f565b9350505b50806114228161193f565b91505061135f565b50801561152e5760008167ffffffffffffffff81111561144c5761144c6118fd565b604051908082528060200260200182016040528015611475578160200160208202803683370190505b50905060005b828110156114cc5783818151811061149557611495611913565b60200260200101518282815181106114af576114af611913565b6020908102919091010152806114c48161193f565b91505061147b565b50848a88815181106114e0576114e0611913565b60200260200101906001600160a01b031690816001600160a01b0316815250508089888151811061151357611513611913565b602002602001018190525086806115299061193f565b975050505b50505050808061153d9061193f565b915050611282565b505050915091565b611555611626565b6001600160a01b0381166115ba5760405162461bcd60e51b815260206004820152602660248201527f4f776e61626c653a206e6577206f776e657220697320746865207a65726f206160448201526564647265737360d01b60648201526084016104f1565b6115c381611680565b50565b6001600160a01b03821660009081526003602081815260408084208585529091528220015460ff16801561161d57506001600160a01b03838116600090815260046020908152604080832086845290915290205416155b90505b92915050565b6001546001600160a01b031633146108ed5760405162461bcd60e51b815260206004820181905260248201527f4f776e61626c653a2063616c6c6572206973206e6f7420746865206f776e657260448201526064016104f1565b600180546001600160a01b038381166001600160a01b0319831681179093556040519116919082907f8be0079c531659141344cd1fd0a4f28419497f9722a3daafe3b4186f6b6457e090600090a35050565b6002600054036117245760405162461bcd60e51b815260206004820152601f60248201527f5265656e7472616e637947756172643a207265656e7472616e742063616c6c0060448201526064016104f1565b6002600055565b6001600160a01b03811681146115c357600080fd5b6000806040838503121561175357600080fd5b823561175e8161172b565b946020939093013593505050565b6000806000806080858703121561178257600080fd5b843561178d8161172b565b966020860135965060408601359560600135945092505050565b604080825283519082018190526000906020906060840190828701845b828110156117e95781516001600160a01b0316845292840192908401906001016117c4565b50505083810382850152845180825282820190600581901b8301840187850160005b8381101561185f57858303601f1901855281518051808552908801908885019060005b8181101561184a5783518352928a0192918a019160010161182e565b5050958801959350509086019060010161180b565b50909998505050505050505050565b60008060006060848603121561188357600080fd5b833561188e8161172b565b95602085013595506040909401359392505050565b6000602082840312156118b557600080fd5b5035919050565b6000602082840312156118ce57600080fd5b81356118d98161172b565b9392505050565b6000602082840312156118f257600080fd5b81516118d98161172b565b634e487b7160e01b600052604160045260246000fd5b634e487b7160e01b600052603260045260246000fd5b634e487b7160e01b600052601160045260246000fd5b60006001820161195157611951611929565b5060010190565b808202811582820484141761162057611620611929565b808201808211156116205761162061192956fea26469706673582212202ef71b2e2596efb9c2ac7a74da787a7538730e70807ea839dd92e71abb6474b164736f6c63430008130033",
  "linkReferences": {},
  "deployedLinkReferences": {}
}