{"contracts/NFTRental.sol":{"NFTRental":{"abi":[{"anonymous":false,"inputs":[{"indexed":true,"internalType":"address","name":"nftContract","type":"address"},{"indexed":true,"internalType":"uint256","name":"tokenId","type":"uint256"},{"indexed":false,"internalType":"uint256","name":"pricePerDay","type":"uint256"},{"indexed":false,"internalType":"uint256","name":"maxDuration","type":"uint256"}],"name":"NFTListed","type":"event"},{"anonymous":false,"inputs":[{"indexed":true,"internalType":"address","name":"nftContract","type":"address"},{"indexed":true,"internalType":"uint256","name":"tokenId","type":"uint256"},{"indexed":true,"internalType":"address","name":"renter","type":"address"},{"indexed":false,"internalType":"uint256","name":"duration","type":"uint256"}],"name":"NFTRented","type":"event"},{"anonymous":false,"inputs":[{"indexed":true,"internalType":"address","name":"nftContract","type":"address"},{"indexed":true,"internalType":"uint256","name":"tokenId","type":"uint256"}],"name":"NFTUnlisted","type":"event"},{"anonymous":false,"inputs":[{"indexed":true,"internalType":"address","name":"previousOwner","type":"address"},{"indexed":true,"internalType":"address","name":"newOwner","type":"address"}],"name":"OwnershipTransferred","type":"event"},{"anonymous":false,"inputs":[{"indexed":true,"internalType":"address","name":"nftContract","type":"address"},{"indexed":true,"internalType":"uint256","name":"tokenId","type":"uint256"}],"name":"RentalEnded","type":"event"},{"inputs":[{"internalType":"address","name":"","type":"address"},{"internalType":"uint256","name":"","type":"uint256"}],"name":"currentRenter","outputs":[{"internalType":"address","name":"","type":"address"}],"stateMutability":"view","type":"function"},{"inputs":[{"internalType":"address","name":"nftContract","type":"address"},{"internalType":"uint256","name":"tokenId","type":"uint256"}],"name":"endRental","outputs":[],"stateMutability":"nonpayable","type":"function"},{"inputs":[],"name":"getActiveListings","outputs":[{"internalType":"address[]","name":"contracts","type":"address[]"},{"internalType":"uint256[][]","name":"tokenIds","type":"uint256[][]"}],"stateMutability":"view","type":"function"},{"inputs":[{"internalType":"address","name":"nftContract","type":"address"},{"internalType":"uint256","name":"tokenId","type":"uint256"}],"name":"getRentalInfo","outputs":[{"internalType":"address","name":"owner","type":"address"},{"internalType":"uint256","name":"pricePerDay","type":"uint256"},{"internalType":"uint256","name":"maxDuration","type":"uint256"},{"internalType":"bool","name":"isActive","type":"bool"},{"internalType":"address","name":"renter","type":"address"},{"internalType":"uint256","name":"endTime","type":"uint256"}],"stateMutability":"view","type":"function"},{"inputs":[{"internalType":"address","name":"nftContract","type":"address"},{"internalType":"uint256","name":"tokenId","type":"uint256"}],"name":"isAvailableForRent","outputs":[{"internalType":"bool","name":"","type":"bool"}],"stateMutability":"view","type":"function"},{"inputs":[{"internalType":"address","name":"nftContract","type":"address"},{"internalType":"uint256","name":"tokenId","type":"uint256"},{"internalType":"uint256","name":"pricePerDay","type":"uint256"},{"internalType":"uint256","name":"maxDuration","type":"uint256"}],"name":"listNFT","outputs":[],"stateMutability":"nonpayable","type":"function"},{"inputs":[{"internalType":"address","name":"","type":"address"},{"internalType":"uint256","name":"","type":"uint256"}],"name":"listings","outputs":[{"internalType":"address","name":"owner","type":"address"},{"internalType":"uint256","name":"pricePerDay","type":"uint256"},{"internalType":"uint256","name":"maxDuration","type":"uint256"},{"internalType":"bool","name":"isActive","type":"bool"}],"stateMutability":"view","type":"function"},{"inputs":[],"name":"owner","outputs":[{"internalType":"address","name":"","type":"address"}],"stateMutability":"view","type":"function"},{"inputs":[],"name":"renounceOwnership","outputs":[],"stateMutability":"nonpayable","type":"function"},{"inputs":[{"internalType":"address","name":"nftContract","type":"address"},{"internalType":"uint256","name":"tokenId","type":"uint256"},{"internalType":"uint256","name":"duration","type":"uint256"}],"name":"rentNFT","outputs":[],"stateMutability":"payable","type":"function"},{"inputs":[{"internalType":"address","name":"","type":"address"},{"internalType":"uint256","name":"","type":"uint256"}],"name":"rentalEndTime","outputs":[{"internalType":"uint256","name":"","type":"uint256"}],"stateMutability":"view","type":"function"},{"inputs":[{"internalType":"address","name":"newOwner","type":"address"}],"name":"transferOwnership","outputs":[],"stateMutability":"nonpayable","type":"function"},{"inputs":[{"internalType":"address","name":"nftContract","type":"address"},{"internalType":"uint256","name":"tokenId","type":"uint256"}],"name":"unlistNFT","outputs":[],"stateMutability":"nonpayable","type":"function"}],"evm":{"bytecode":{"linkReferences":{},"object":"608060405234801561001057600080fd5b50600160005561001f33610024565b610076565b600180546001600160a01b038381166001600160a01b0319831681179093556040519116919082907f8be0079c531659141344cd1fd0a4f28419497f9722a3daafe3b4186f6b6457e090600090a35050565b6114db806100856000396000f3fe6080604052600436106100c15760003560e01c80637fc27efd1161007f578063d68a36ff11610059578063d68a36ff1461034d578063ef00df7614610360578063f2fde38b146103a1578063f33d8b59146103c157600080fd5b80637fc27efd146102d857806387c35bc0146102f85780638da5cb5b1461031b57600080fd5b806207df30146100c65780631157decb14610150578063205a2bc1146101725780633c44a5f0146101b85780633ec966ad146101d8578063715018a6146102c3575b600080fd5b3480156100d257600080fd5b5061011f6100e1366004611253565b6003602081815260009384526040808520909152918352912080546001820154600283015492909301546001600160a01b0390911692919060ff1684565b604080516001600160a01b039095168552602085019390935291830152151560608201526080015b60405180910390f35b34801561015c57600080fd5b5061017061016b366004611253565b6103f1565b005b34801561017e57600080fd5b506101aa61018d366004611253565b600560209081526000928352604080842090915290825290205481565b604051908152602001610147565b3480156101c457600080fd5b506101706101d336600461127f565b610541565b3480156101e457600080fd5b506102846101f3366004611253565b6001600160a01b039182166000818152600360208181526040808420868552825280842081516080810183528154891680825260018301548286018190526002840154838601819052939096015460ff161515606090920182905287875260048552838720898852855283872054978752600585528387209887529790935293205494969195929490939092169190565b604080516001600160a01b03978816815260208101969096528501939093529015156060840152909216608082015260a081019190915260c001610147565b3480156102cf57600080fd5b50610170610877565b3480156102e457600080fd5b506101706102f3366004611253565b61088b565b34801561030457600080fd5b5061030d610ac6565b6040516101479291906112ba565b34801561032757600080fd5b506001546001600160a01b03165b6040516001600160a01b039091168152602001610147565b61017061035b366004611381565b610dc9565b34801561036c57600080fd5b5061033561037b366004611253565b60046020908152600092835260408084209091529082529020546001600160a01b031681565b3480156103ad57600080fd5b506101706103bc3660046113b6565b611060565b3480156103cd57600080fd5b506103e16103dc366004611253565b6110d9565b6040519015158152602001610147565b6001600160a01b03821660009081526005602090815260408083208484529091529020544210156104695760405162461bcd60e51b815260206004820152601760248201527f52656e74616c20706572696f64206e6f7420656e64656400000000000000000060448201526064015b60405180910390fd5b6001600160a01b038281166000908152600460209081526040808320858452909152902054166104cf5760405162461bcd60e51b8152602060048201526011602482015270139195081a5cc81b9bdd081c995b9d1959607a1b6044820152606401610460565b6001600160a01b0382166000818152600460209081526040808320858452825280832080546001600160a01b031916905583835260058252808320858452909152808220829055518392917ff930704665fcf9291bccc9facd2f7f348b88a9047c3d24fb4e71a923097ffa7091a35050565b6040516331a9108f60e11b81526004810184905233906001600160a01b03861690636352211e90602401602060405180830381865afa158015610588573d6000803e3d6000fd5b505050506040513d601f19601f820116820180604052508101906105ac91906113da565b6001600160a01b0316146105f25760405162461bcd60e51b815260206004820152600d60248201526c2737ba103a34329037bbb732b960991b6044820152606401610460565b600082116106425760405162461bcd60e51b815260206004820152601c60248201527f5072696365206d7573742062652067726561746572207468616e2030000000006044820152606401610460565b600081116106925760405162461bcd60e51b815260206004820152601f60248201527f4475726174696f6e206d7573742062652067726561746572207468616e2030006044820152606401610460565b6001600160a01b03848116600090815260046020908152604080832087845290915290205416156106ff5760405162461bcd60e51b8152602060048201526017602482015276139195081a5cc818dd5c9c995b9d1b1e481c995b9d1959604a1b6044820152606401610460565b6040805160808101825233815260208082018581528284018581526001606085018181526001600160a01b038b8116600081815260038089528a82208e835289528a822099518a546001600160a01b0319169416939093178955955193880193909355925160028701555194909101805460ff19169415159490941790935591825260099052205460ff166107f2576006805460018082019092557ff652222313e28459528d920b65115c16c04f3efc82aaedc97be59f3f377c0d3f0180546001600160a01b0319166001600160a01b0387169081179091556000908152600960205260409020805460ff191690911790555b6001600160a01b038416600081815260076020908152604080832080546008845282852089865284528285208190556001810182558185529383902090930187905580518681529182018590529192869290917f72c6b00617fb9c6ec35f606798d02888460a1dd9bb2cce22abd49ee21a0ee816910160405180910390a35050505050565b61087f611139565b6108896000611193565b565b6001600160a01b0382811660009081526003602090815260408083208584529091529020541633146108ef5760405162461bcd60e51b815260206004820152600d60248201526c2737ba103a34329037bbb732b960991b6044820152606401610460565b6001600160a01b038281166000908152600460209081526040808320858452909152902054161561095c5760405162461bcd60e51b8152602060048201526017602482015276139195081a5cc818dd5c9c995b9d1b1e481c995b9d1959604a1b6044820152606401610460565b6001600160a01b0382166000818152600360208181526040808420868552825280842080546001600160a01b03191681556001808201869055600282018690559301805460ff19169055938352600781528383206008825284842086855290915292822054835490929184916109d2919061140d565b815481106109e2576109e2611420565b9060005260206000200154905060018380549050610a00919061140d565b821015610a4b5780838381548110610a1a57610a1a611420565b60009182526020808320909101929092556001600160a01b0387168152600882526040808220848352909252208290555b82805480610a5b57610a5b611436565b6000828152602080822083016000199081018390559092019092556001600160a01b038716808352600882526040808420888552909252818320839055905186927f8a7922f72dc2a50a632acdde12b7d222aefa2fdb7f3ca1364b419734569d0e8091a35050505050565b600654606090819067ffffffffffffffff811115610ae657610ae661144c565b604051908082528060200260200182016040528015610b0f578160200160208202803683370190505b5060065490925067ffffffffffffffff811115610b2e57610b2e61144c565b604051908082528060200260200182016040528015610b6157816020015b6060815260200190600190039081610b4c5790505b50905060005b600654811015610dc457600060068281548110610b8657610b86611420565b60009182526020808320909101546001600160a01b03168083526007909152604082208054919350919067ffffffffffffffff811115610bc857610bc861144c565b604051908082528060200260200182016040528015610bf1578160200160208202803683370190505b5090506000805b8354811015610cbe576000848281548110610c1557610c15611420565b60009182526020808320909101546001600160a01b03891683526003808352604080852083865290935291909220015490915060ff168015610c7a57506001600160a01b03868116600090815260046020908152604080832085845290915290205416155b15610cab5780848481518110610c9257610c92611420565b602090810291909101015282610ca781611462565b9350505b5080610cb681611462565b915050610bf8565b5060008167ffffffffffffffff811115610cda57610cda61144c565b604051908082528060200260200182016040528015610d03578160200160208202803683370190505b50905060005b82811015610d5a57838181518110610d2357610d23611420565b6020026020010151828281518110610d3d57610d3d611420565b602090810291909101015280610d5281611462565b915050610d09565b5084888781518110610d6e57610d6e611420565b60200260200101906001600160a01b031690816001600160a01b03168152505080878781518110610da157610da1611420565b602002602001018190525050505050508080610dbc90611462565b915050610b67565b509091565b610dd16111e5565b6001600160a01b03831660009081526003602081815260408084208685529091529091209081015460ff16610e485760405162461bcd60e51b815260206004820152601760248201527f4e4654206e6f74206c697374656420666f722072656e740000000000000000006044820152606401610460565b8060020154821115610e9c5760405162461bcd60e51b815260206004820152601860248201527f4475726174696f6e2065786365656473206d6178696d756d00000000000000006044820152606401610460565b818160010154610eac919061147b565b341015610ef25760405162461bcd60e51b8152602060048201526014602482015273125b9cdd59999a58da595b9d081c185e5b595b9d60621b6044820152606401610460565b6001600160a01b0384811660009081526004602090815260408083208784529091529020541615610f5d5760405162461bcd60e51b8152602060048201526015602482015274139195081a5cc8185b1c9958591e481c995b9d1959605a1b6044820152606401610460565b6001600160a01b0384166000908152600460209081526040808320868452909152902080546001600160a01b03191633179055610f9d826201518061147b565b610fa79042611492565b6001600160a01b038086166000908152600560209081526040808320888452909152808220939093558354925192909116913480156108fc0292909190818181858888f19350505050158015611001573d6000803e3d6000fd5b50336001600160a01b031683856001600160a01b03167f4f4ab304d681e6f116067260164b7bfda1f47a254834cc6320cf5f8f0a4361088560405161104891815260200190565b60405180910390a45061105b6001600055565b505050565b611068611139565b6001600160a01b0381166110cd5760405162461bcd60e51b815260206004820152602660248201527f4f776e61626c653a206e6577206f776e657220697320746865207a65726f206160448201526564647265737360d01b6064820152608401610460565b6110d681611193565b50565b6001600160a01b03821660009081526003602081815260408084208585529091528220015460ff16801561113057506001600160a01b03838116600090815260046020908152604080832086845290915290205416155b90505b92915050565b6001546001600160a01b031633146108895760405162461bcd60e51b815260206004820181905260248201527f4f776e61626c653a2063616c6c6572206973206e6f7420746865206f776e65726044820152606401610460565b600180546001600160a01b038381166001600160a01b0319831681179093556040519116919082907f8be0079c531659141344cd1fd0a4f28419497f9722a3daafe3b4186f6b6457e090600090a35050565b6002600054036112375760405162461bcd60e51b815260206004820152601f60248201527f5265656e7472616e637947756172643a207265656e7472616e742063616c6c006044820152606401610460565b6002600055565b6001600160a01b03811681146110d657600080fd5b6000806040838503121561126657600080fd5b82356112718161123e565b946020939093013593505050565b6000806000806080858703121561129557600080fd5b84356112a08161123e565b966020860135965060408601359560600135945092505050565b604080825283519082018190526000906020906060840190828701845b828110156112fc5781516001600160a01b0316845292840192908401906001016112d7565b50505083810382850152845180825282820190600581901b8301840187850160005b8381101561137257858303601f1901855281518051808552908801908885019060005b8181101561135d5783518352928a0192918a0191600101611341565b5050958801959350509086019060010161131e565b50909998505050505050505050565b60008060006060848603121561139657600080fd5b83356113a18161123e565b95602085013595506040909401359392505050565b6000602082840312156113c857600080fd5b81356113d38161123e565b9392505050565b6000602082840312156113ec57600080fd5b81516113d38161123e565b634e487b7160e01b600052601160045260246000fd5b81810381811115611133576111336113f7565b634e487b7160e01b600052603260045260246000fd5b634e487b7160e01b600052603160045260246000fd5b634e487b7160e01b600052604160045260246000fd5b600060018201611474576114746113f7565b5060010190565b8082028115828204841417611133576111336113f7565b80820180821115611133576111336113f756fea2646970667358221220d6aa052912f00e9f132df174d83e453698d40dbe429a13b179d3b36d0c1a096164736f6c63430008130033","opcodes":"PUSH1 0x80 PUSH1 0x40 MSTORE CALLVALUE DUP1 ISZERO PUSH2 0x10 JUMPI PUSH1 0x0 DUP1 REVERT JUMPDEST POP PUSH1 0x1 PUSH1 0x0 SSTORE PUSH2 0x1F CALLER PUSH2 0x24 JUMP JUMPDEST PUSH2 0x76 JUMP JUMPDEST PUSH1 0x1 DUP1 SLOAD PUSH1 0x1 PUSH1 0x1 PUSH1 0xA0 SHL SUB DUP4 DUP2 AND PUSH1 0x1 PUSH1 0x1 PUSH1 0xA0 SHL SUB NOT DUP4 AND DUP2 OR SWAP1 SWAP4 SSTORE PUSH1 0x40 MLOAD SWAP2 AND SWAP2 SWAP1 DUP3 SWAP1 PUSH32 0x8BE0079C531659141344CD1FD0A4F28419497F9722A3DAAFE3B4186F6B6457E0 SWAP1 PUSH1 0x0 SWAP1 LOG3 POP POP JUMP JUMPDEST PUSH2 0x14DB DUP1 PUSH2 0x85 PUSH1 0x0 CODECOPY PUSH1 0x0 RETURN INVALID PUSH1 0x80 PUSH1 0x40 MSTORE PUSH1 0x4 CALLDATASIZE LT PUSH2 0xC1 JUMPI PUSH1 0x0 CALLDATALOAD PUSH1 0xE0 SHR DUP1 PUSH4 0x7FC27EFD GT PUSH2 0x7F JUMPI DUP1 PUSH4 0xD68A36FF GT PUSH2 0x59 JUMPI DUP1 PUSH4 0xD68A36FF EQ PUSH2 0x34D JUMPI DUP1 PUSH4 0xEF00DF76 EQ PUSH2 0x360 JUMPI DUP1 PUSH4 0xF2FDE38B EQ PUSH2 0x3A1 JUMPI DUP1 PUSH4 0xF33D8B59 EQ PUSH2 0x3C1 JUMPI PUSH1 0x0 DUP1 REVERT JUMPDEST DUP1 PUSH4 0x7FC27EFD EQ PUSH2 0x2D8 JUMPI DUP1 PUSH4 0x87C35BC0 EQ PUSH2 0x2F8 JUMPI DUP1 PUSH4 0x8DA5CB5B EQ PUSH2 0x31B JUMPI PUSH1 0x0 DUP1 REVERT JUMPDEST DUP1 PUSH3 0x7DF30 EQ PUSH2 0xC6 JUMPI DUP1 PUSH4 0x1157DECB EQ PUSH2 0x150 JUMPI DUP1 PUSH4 0x205A2BC1 EQ PUSH2 0x172 JUMPI DUP1 PUSH4 0x3C44A5F0 EQ PUSH2 0x1B8 JUMPI DUP1 PUSH4 0x3EC966AD EQ PUSH2 0x1D8 JUMPI DUP1 PUSH4 0x715018A6 EQ PUSH2 0x2C3 JUMPI JUMPDEST PUSH1 0x0 DUP1 REVERT JUMPDEST CALLVALUE DUP1 ISZERO PUSH2 0xD2 JUMPI PUSH1 0x0 DUP1 REVERT JUMPDEST POP PUSH2 0x11F PUSH2 0xE1 CALLDATASIZE PUSH1 0x4 PUSH2 0x1253 JUMP JUMPDEST PUSH1 0x3 PUSH1 0x20 DUP2 DUP2 MSTORE PUSH1 0x0 SWAP4 DUP5 MSTORE PUSH1 0x40 DUP1 DUP6 KECCAK256 SWAP1 SWAP2 MSTORE SWAP2 DUP4 MSTORE SWAP2 KECCAK256 DUP1 SLOAD PUSH1 0x1 DUP3 ADD SLOAD PUSH1 0x2 DUP4 ADD SLOAD SWAP3 SWAP1 SWAP4 ADD SLOAD PUSH1 0x1 PUSH1 0x1 PUSH1 0xA0 SHL SUB SWAP1 SWAP2 AND SWAP3 SWAP2 SWAP1 PUSH1 0xFF AND DUP5 JUMP JUMPDEST PUSH1 0x40 DUP1 MLOAD PUSH1 0x1 PUSH1 0x1 PUSH1 0xA0 SHL SUB SWAP1 SWAP6 AND DUP6 MSTORE PUSH1 0x20 DUP6 ADD SWAP4 SWAP1 SWAP4 MSTORE SWAP2 DUP4 ADD MSTORE ISZERO ISZERO PUSH1 0x60 DUP3 ADD MSTORE PUSH1 0x80 ADD JUMPDEST PUSH1 0x40 MLOAD DUP1 SWAP2 SUB SWAP1 RETURN JUMPDEST CALLVALUE DUP1 ISZERO PUSH2 0x15C JUMPI PUSH1 0x0 DUP1 REVERT JUMPDEST POP PUSH2 0x170 PUSH2 0x16B CALLDATASIZE PUSH1 0x4 PUSH2 0x1253 JUMP JUMPDEST PUSH2 0x3F1 JUMP JUMPDEST STOP JUMPDEST CALLVALUE DUP1 ISZERO PUSH2 0x17E JUMPI PUSH1 0x0 DUP1 REVERT JUMPDEST POP PUSH2 0x1AA PUSH2 0x18D CALLDATASIZE PUSH1 0x4 PUSH2 0x1253 JUMP JUMPDEST PUSH1 0x5 PUSH1 0x20 SWAP1 DUP2 MSTORE PUSH1 0x0 SWAP3 DUP4 MSTORE PUSH1 0x40 DUP1 DUP5 KECCAK256 SWAP1 SWAP2 MSTORE SWAP1 DUP3 MSTORE SWAP1 KECCAK256 SLOAD DUP2 JUMP JUMPDEST PUSH1 0x40 MLOAD SWAP1 DUP2 MSTORE PUSH1 0x20 ADD PUSH2 0x147 JUMP JUMPDEST CALLVALUE DUP1 ISZERO PUSH2 0x1C4 JUMPI PUSH1 0x0 DUP1 REVERT JUMPDEST POP PUSH2 0x170 PUSH2 0x1D3 CALLDATASIZE PUSH1 0x4 PUSH2 0x127F JUMP JUMPDEST PUSH2 0x541 JUMP JUMPDEST CALLVALUE DUP1 ISZERO PUSH2 0x1E4 JUMPI PUSH1 0x0 DUP1 REVERT JUMPDEST POP PUSH2 0x284 PUSH2 0x1F3 CALLDATASIZE PUSH1 0x4 PUSH2 0x1253 JUMP JUMPDEST PUSH1 0x1 PUSH1 0x1 PUSH1 0xA0 SHL SUB SWAP2 DUP3 AND PUSH1 0x0 DUP2 DUP2 MSTORE PUSH1 0x3 PUSH1 0x20 DUP2 DUP2 MSTORE PUSH1 0x40 DUP1 DUP5 KECCAK256 DUP7 DUP6 MSTORE DUP3 MSTORE DUP1 DUP5 KECCAK256 DUP2 MLOAD PUSH1 0x80 DUP2 ADD DUP4 MSTORE DUP2 SLOAD DUP10 AND DUP1 DUP3 MSTORE PUSH1 0x1 DUP4 ADD SLOAD DUP3 DUP7 ADD DUP2 SWAP1 MSTORE PUSH1 0x2 DUP5 ADD SLOAD DUP4 DUP7 ADD DUP2 SWAP1 MSTORE SWAP4 SWAP1 SWAP7 ADD SLOAD PUSH1 0xFF AND ISZERO ISZERO PUSH1 0x60 SWAP1 SWAP3 ADD DUP3 SWAP1 MSTORE DUP8 DUP8 MSTORE PUSH1 0x4 DUP6 MSTORE DUP4 DUP8 KECCAK256 DUP10 DUP9 MSTORE DUP6 MSTORE DUP4 DUP8 KECCAK256 SLOAD SWAP8 DUP8 MSTORE PUSH1 0x5 DUP6 MSTORE DUP4 DUP8 KECCAK256 SWAP9 DUP8 MSTORE SWAP8 SWAP1 SWAP4 MSTORE SWAP4 KECCAK256 SLOAD SWAP5 SWAP7 SWAP2 SWAP6 SWAP3 SWAP5 SWAP1 SWAP4 SWAP1 SWAP3 AND SWAP2 SWAP1 JUMP JUMPDEST PUSH1 0x40 DUP1 MLOAD PUSH1 0x1 PUSH1 0x1 PUSH1 0xA0 SHL SUB SWAP8 DUP9 AND DUP2 MSTORE PUSH1 0x20 DUP2 ADD SWAP7 SWAP1 SWAP7 MSTORE DUP6 ADD SWAP4 SWAP1 SWAP4 MSTORE SWAP1 ISZERO ISZERO PUSH1 0x60 DUP5 ADD MSTORE SWAP1 SWAP3 AND PUSH1 0x80 DUP3 ADD MSTORE PUSH1 0xA0 DUP2 ADD SWAP2 SWAP1 SWAP2 MSTORE PUSH1 0xC0 ADD PUSH2 0x147 JUMP JUMPDEST CALLVALUE DUP1 ISZERO PUSH2 0x2CF JUMPI PUSH1 0x0 DUP1 REVERT JUMPDEST POP PUSH2 0x170 PUSH2 0x877 JUMP JUMPDEST CALLVALUE DUP1 ISZERO PUSH2 0x2E4 JUMPI PUSH1 0x0 DUP1 REVERT JUMPDEST POP PUSH2 0x170 PUSH2 0x2F3 CALLDATASIZE PUSH1 0x4 PUSH2 0x1253 JUMP JUMPDEST PUSH2 0x88B JUMP JUMPDEST CALLVALUE DUP1 ISZERO PUSH2 0x304 JUMPI PUSH1 0x0 DUP1 REVERT JUMPDEST POP PUSH2 0x30D PUSH2 0xAC6 JUMP JUMPDEST PUSH1 0x40 MLOAD PUSH2 0x147 SWAP3 SWAP2 SWAP1 PUSH2 0x12BA JUMP JUMPDEST CALLVALUE DUP1 ISZERO PUSH2 0x327 JUMPI PUSH1 0x0 DUP1 REVERT JUMPDEST POP PUSH1 0x1 SLOAD PUSH1 0x1 PUSH1 0x1 PUSH1 0xA0 SHL SUB AND JUMPDEST PUSH1 0x40 MLOAD PUSH1 0x1 PUSH1 0x1 PUSH1 0xA0 SHL SUB SWAP1 SWAP2 AND DUP2 MSTORE PUSH1 0x20 ADD PUSH2 0x147 JUMP JUMPDEST PUSH2 0x170 PUSH2 0x35B CALLDATASIZE PUSH1 0x4 PUSH2 0x1381 JUMP JUMPDEST PUSH2 0xDC9 JUMP JUMPDEST CALLVALUE DUP1 ISZERO PUSH2 0x36C JUMPI PUSH1 0x0 DUP1 REVERT JUMPDEST POP PUSH2 0x335 PUSH2 0x37B CALLDATASIZE PUSH1 0x4 PUSH2 0x1253 JUMP JUMPDEST PUSH1 0x4 PUSH1 0x20 SWAP1 DUP2 MSTORE PUSH1 0x0 SWAP3 DUP4 MSTORE PUSH1 0x40 DUP1 DUP5 KECCAK256 SWAP1 SWAP2 MSTORE SWAP1 DUP3 MSTORE SWAP1 KECCAK256 SLOAD PUSH1 0x1 PUSH1 0x1 PUSH1 0xA0 SHL SUB AND DUP2 JUMP JUMPDEST CALLVALUE DUP1 ISZERO PUSH2 0x3AD JUMPI PUSH1 0x0 DUP1 REVERT JUMPDEST POP PUSH2 0x170 PUSH2 0x3BC CALLDATASIZE PUSH1 0x4 PUSH2 0x13B6 JUMP JUMPDEST PUSH2 0x1060 JUMP JUMPDEST CALLVALUE DUP1 ISZERO PUSH2 0x3CD JUMPI PUSH1 0x0 DUP1 REVERT JUMPDEST POP PUSH2 0x3E1 PUSH2 0x3DC CALLDATASIZE PUSH1 0x4 PUSH2 0x1253 JUMP JUMPDEST PUSH2 0x10D9 JUMP JUMPDEST PUSH1 0x40 MLOAD SWAP1 ISZERO ISZERO DUP2 MSTORE PUSH1 0x20 ADD PUSH2 0x147 JUMP JUMPDEST PUSH1 0x1 PUSH1 0x1 PUSH1 0xA0 SHL SUB DUP3 AND PUSH1 0x0 SWAP1 DUP2 MSTORE PUSH1 0x5 PUSH1 0x20 SWAP1 DUP2 MSTORE PUSH1 0x40 DUP1 DUP4 KECCAK256 DUP5 DUP5 MSTORE SWAP1 SWAP2 MSTORE SWAP1 KECCAK256 SLOAD TIMESTAMP LT ISZERO PUSH2 0x469 JUMPI PUSH1 0x40 MLOAD PUSH3 0x461BCD PUSH1 0xE5 SHL DUP2 MSTORE PUSH1 0x20 PUSH1 0x4 DUP3 ADD MSTORE PUSH1 0x17 PUSH1 0x24 DUP3 ADD MSTORE PUSH32 0x52656E74616C20706572696F64206E6F7420656E646564000000000000000000 PUSH1 0x44 DUP3 ADD MSTORE PUSH1 0x64 ADD JUMPDEST PUSH1 0x40 MLOAD DUP1 SWAP2 SUB SWAP1 REVERT JUMPDEST PUSH1 0x1 PUSH1 0x1 PUSH1 0xA0 SHL SUB DUP3 DUP2 AND PUSH1 0x0 SWAP1 DUP2 MSTORE PUSH1 0x4 PUSH1 0x20 SWAP1 DUP2 MSTORE PUSH1 0x40 DUP1 DUP4 KECCAK256 DUP6 DUP5 MSTORE SWAP1 SWAP2 MSTORE SWAP1 KECCAK256 SLOAD AND PUSH2 0x4CF JUMPI PUSH1 0x40 MLOAD PUSH3 0x461BCD PUSH1 0xE5 SHL DUP2 MSTORE PUSH1 0x20 PUSH1 0x4 DUP3 ADD MSTORE PUSH1 0x11 PUSH1 0x24 DUP3 ADD MSTORE PUSH17 0x139195081A5CC81B9BDD081C995B9D1959 PUSH1 0x7A SHL PUSH1 0x44 DUP3 ADD MSTORE PUSH1 0x64 ADD PUSH2 0x460 JUMP JUMPDEST PUSH1 0x1 PUSH1 0x1 PUSH1 0xA0 SHL SUB DUP3 AND PUSH1 0x0 DUP2 DUP2 MSTORE PUSH1 0x4 PUSH1 0x20 SWAP1 DUP2 MSTORE PUSH1 0x40 DUP1 DUP4 KECCAK256 DUP6 DUP5 MSTORE DUP3 MSTORE DUP1 DUP4 KECCAK256 DUP1 SLOAD PUSH1 0x1 PUSH1 0x1 PUSH1 0xA0 SHL SUB NOT AND SWAP1 SSTORE DUP4 DUP4 MSTORE PUSH1 0x5 DUP3 MSTORE DUP1 DUP4 KECCAK256 DUP6 DUP5 MSTORE SWAP1 SWAP2 MSTORE DUP1 DUP3 KECCAK256 DUP3 SWAP1 SSTORE MLOAD DUP4 SWAP3 SWAP2 PUSH32 0xF930704665FCF9291BCCC9FACD2F7F348B88A9047C3D24FB4E71A923097FFA70 SWAP2 LOG3 POP POP JUMP JUMPDEST PUSH1 0x40 MLOAD PUSH4 0x31A9108F PUSH1 0xE1 SHL DUP2 MSTORE PUSH1 0x4 DUP2 ADD DUP5 SWAP1 MSTORE CALLER SWAP1 PUSH1 0x1 PUSH1 0x1 PUSH1 0xA0 SHL SUB DUP7 AND SWAP1 PUSH4 0x6352211E SWAP1 PUSH1 0x24 ADD PUSH1 0x20 PUSH1 0x40 MLOAD DUP1 DUP4 SUB DUP2 DUP7 GAS STATICCALL ISZERO DUP1 ISZERO PUSH2 0x588 JUMPI RETURNDATASIZE PUSH1 0x0 DUP1 RETURNDATACOPY RETURNDATASIZE PUSH1 0x0 REVERT JUMPDEST POP POP POP POP PUSH1 0x40 MLOAD RETURNDATASIZE PUSH1 0x1F NOT PUSH1 0x1F DUP3 ADD AND DUP3 ADD DUP1 PUSH1 0x40 MSTORE POP DUP2 ADD SWAP1 PUSH2 0x5AC SWAP2 SWAP1 PUSH2 0x13DA JUMP JUMPDEST PUSH1 0x1 PUSH1 0x1 PUSH1 0xA0 SHL SUB AND EQ PUSH2 0x5F2 JUMPI PUSH1 0x40 MLOAD PUSH3 0x461BCD PUSH1 0xE5 SHL DUP2 MSTORE PUSH1 0x20 PUSH1 0x4 DUP3 ADD MSTORE PUSH1 0xD PUSH1 0x24 DUP3 ADD MSTORE PUSH13 0x2737BA103A34329037BBB732B9 PUSH1 0x99 SHL PUSH1 0x44 DUP3 ADD MSTORE PUSH1 0x64 ADD PUSH2 0x460 JUMP JUMPDEST PUSH1 0x0 DUP3 GT PUSH2 0x642 JUMPI PUSH1 0x40 MLOAD PUSH3 0x461BCD PUSH1 0xE5 SHL DUP2 MSTORE PUSH1 0x20 PUSH1 0x4 DUP3 ADD MSTORE PUSH1 0x1C PUSH1 0x24 DUP3 ADD MSTORE PUSH32 0x5072696365206D7573742062652067726561746572207468616E203000000000 PUSH1 0x44 DUP3 ADD MSTORE PUSH1 0x64 ADD PUSH2 0x460 JUMP JUMPDEST PUSH1 0x0 DUP2 GT PUSH2 0x692 JUMPI PUSH1 0x40 MLOAD PUSH3 0x461BCD PUSH1 0xE5 SHL DUP2 MSTORE PUSH1 0x20 PUSH1 0x4 DUP3 ADD MSTORE PUSH1 0x1F PUSH1 0x24 DUP3 ADD MSTORE PUSH32 0x4475726174696F6E206D7573742062652067726561746572207468616E203000 PUSH1 0x44 DUP3 ADD MSTORE PUSH1 0x64 ADD PUSH2 0x460 JUMP JUMPDEST PUSH1 0x1 PUSH1 0x1 PUSH1 0xA0 SHL SUB DUP5 DUP2 AND PUSH1 0x0 SWAP1 DUP2 MSTORE PUSH1 0x4 PUSH1 0x20 SWAP1 DUP2 MSTORE PUSH1 0x40 DUP1 DUP4 KECCAK256 DUP8 DUP5 MSTORE SWAP1 SWAP2 MSTORE SWAP1 KECCAK256 SLOAD AND ISZERO PUSH2 0x6FF JUMPI PUSH1 0x40 MLOAD PUSH3 0x461BCD PUSH1 0xE5 SHL DUP2 MSTORE PUSH1 0x20 PUSH1 0x4 DUP3 ADD MSTORE PUSH1 0x17 PUSH1 0x24 DUP3 ADD MSTORE PUSH23 0x139195081A5CC818DD5C9C995B9D1B1E481C995B9D1959 PUSH1 0x4A SHL PUSH1 0x44 DUP3 ADD MSTORE PUSH1 0x64 ADD PUSH2 0x460 JUMP JUMPDEST PUSH1 0x40 DUP1 MLOAD PUSH1 0x80 DUP2 ADD DUP3 MSTORE CALLER DUP2 MSTORE PUSH1 0x20 DUP1 DUP3 ADD DUP6 DUP2 MSTORE DUP3 DUP5 ADD DUP6 DUP2 MSTORE PUSH1 0x1 PUSH1 0x60 DUP6 ADD DUP2 DUP2 MSTORE PUSH1 0x1 PUSH1 0x1 PUSH1 0xA0 SHL SUB DUP12 DUP2 AND PUSH1 0x0 DUP2 DUP2 MSTORE PUSH1 0x3 DUP1 DUP10 MSTORE DUP11 DUP3 KECCAK256 DUP15 DUP4 MSTORE DUP10 MSTORE DUP11 DUP3 KECCAK256 SWAP10 MLOAD DUP11 SLOAD PUSH1 0x1 PUSH1 0x1 PUSH1 0xA0 SHL SUB NOT AND SWAP5 AND SWAP4 SWAP1 SWAP4 OR DUP10 SSTORE SWAP6 MLOAD SWAP4 DUP9 ADD SWAP4 SWAP1 SWAP4 SSTORE SWAP3 MLOAD PUSH1 0x2 DUP8 ADD SSTORE MLOAD SWAP5 SWAP1 SWAP2 ADD DUP1 SLOAD PUSH1 0xFF NOT AND SWAP5 ISZERO ISZERO SWAP5 SWAP1 SWAP5 OR SWAP1 SWAP4 SSTORE SWAP2 DUP3 MSTORE PUSH1 0x9 SWAP1 MSTORE KECCAK256 SLOAD PUSH1 0xFF AND PUSH2 0x7F2 JUMPI PUSH1 0x6 DUP1 SLOAD PUSH1 0x1 DUP1 DUP3 ADD SWAP1 SWAP3 SSTORE PUSH32 0xF652222313E28459528D920B65115C16C04F3EFC82AAEDC97BE59F3F377C0D3F ADD DUP1 SLOAD PUSH1 0x1 PUSH1 0x1 PUSH1 0xA0 SHL SUB NOT AND PUSH1 0x1 PUSH1 0x1 PUSH1 0xA0 SHL SUB DUP8 AND SWAP1 DUP2 OR SWAP1 SWAP2 SSTORE PUSH1 0x0 SWAP1 DUP2 MSTORE PUSH1 0x9 PUSH1 0x20 MSTORE PUSH1 0x40 SWAP1 KECCAK256 DUP1 SLOAD PUSH1 0xFF NOT AND SWAP1 SWAP2 OR SWAP1 SSTORE JUMPDEST PUSH1 0x1 PUSH1 0x1 PUSH1 0xA0 SHL SUB DUP5 AND PUSH1 0x0 DUP2 DUP2 MSTORE PUSH1 0x7 PUSH1 0x20 SWAP1 DUP2 MSTORE PUSH1 0x40 DUP1 DUP4 KECCAK256 DUP1 SLOAD PUSH1 0x8 DUP5 MSTORE DUP3 DUP6 KECCAK256 DUP10 DUP7 MSTORE DUP5 MSTORE DUP3 DUP6 KECCAK256 DUP2 SWAP1 SSTORE PUSH1 0x1 DUP2 ADD DUP3 SSTORE DUP2 DUP6 MSTORE SWAP4 DUP4 SWAP1 KECCAK256 SWAP1 SWAP4 ADD DUP8 SWAP1 SSTORE DUP1 MLOAD DUP7 DUP2 MSTORE SWAP2 DUP3 ADD DUP6 SWAP1 MSTORE SWAP2 SWAP3 DUP7 SWAP3 SWAP1 SWAP2 PUSH32 0x72C6B00617FB9C6EC35F606798D02888460A1DD9BB2CCE22ABD49EE21A0EE816 SWAP2 ADD PUSH1 0x40 MLOAD DUP1 SWAP2 SUB SWAP1 LOG3 POP POP POP POP POP JUMP JUMPDEST PUSH2 0x87F PUSH2 0x1139 JUMP JUMPDEST PUSH2 0x889 PUSH1 0x0 PUSH2 0x1193 JUMP JUMPDEST JUMP JUMPDEST PUSH1 0x1 PUSH1 0x1 PUSH1 0xA0 SHL SUB DUP3 DUP2 AND PUSH1 0x0 SWAP1 DUP2 MSTORE PUSH1 0x3 PUSH1 0x20 SWAP1 DUP2 MSTORE PUSH1 0x40 DUP1 DUP4 KECCAK256 DUP6 DUP5 MSTORE SWAP1 SWAP2 MSTORE SWAP1 KECCAK256 SLOAD AND CALLER EQ PUSH2 0x8EF JUMPI PUSH1 0x40 MLOAD PUSH3 0x461BCD PUSH1 0xE5 SHL DUP2 MSTORE PUSH1 0x20 PUSH1 0x4 DUP3 ADD MSTORE PUSH1 0xD PUSH1 0x24 DUP3 ADD MSTORE PUSH13 0x2737BA103A34329037BBB732B9 PUSH1 0x99 SHL PUSH1 0x44 DUP3 ADD MSTORE PUSH1 0x64 ADD PUSH2 0x460 JUMP JUMPDEST PUSH1 0x1 PUSH1 0x1 PUSH1 0xA0 SHL SUB DUP3 DUP2 AND PUSH1 0x0 SWAP1 DUP2 MSTORE PUSH1 0x4 PUSH1 0x20 SWAP1 DUP2 MSTORE PUSH1 0x40 DUP1 DUP4 KECCAK256 DUP6 DUP5 MSTORE SWAP1 SWAP2 MSTORE SWAP1 KECCAK256 SLOAD AND ISZERO PUSH2 0x95C JUMPI PUSH1 0x40 MLOAD PUSH3 0x461BCD PUSH1 0xE5 SHL DUP2 MSTORE PUSH1 0x20 PUSH1 0x4 DUP3 ADD MSTORE PUSH1 0x17 PUSH1 0x24 DUP3 ADD MSTORE PUSH23 0x139195081A5CC818DD5C9C995B9D1B1E481C995B9D1959 PUSH1 0x4A SHL PUSH1 0x44 DUP3 ADD MSTORE PUSH1 0x64 ADD PUSH2 0x460 JUMP JUMPDEST PUSH1 0x1 PUSH1 0x1 PUSH1 0xA0 SHL SUB DUP3 AND PUSH1 0x0 DUP2 DUP2 MSTORE PUSH1 0x3 PUSH1 0x20 DUP2 DUP2 MSTORE PUSH1 0x40 DUP1 DUP5 KECCAK256 DUP7 DUP6 MSTORE DUP3 MSTORE DUP1 DUP5 KECCAK256 DUP1 SLOAD PUSH1 0x1 PUSH1 0x1 PUSH1 0xA0 SHL SUB NOT AND DUP2 SSTORE PUSH1 0x1 DUP1 DUP3 ADD DUP7 SWAP1 SSTORE PUSH1 0x2 DUP3 ADD DUP7 SWAP1 SSTORE SWAP4 ADD DUP1 SLOAD PUSH1 0xFF NOT AND SWAP1 SSTORE SWAP4 DUP4 MSTORE PUSH1 0x7 DUP2 MSTORE DUP4 DUP4 KECCAK256 PUSH1 0x8 DUP3 MSTORE DUP5 DUP5 KECCAK256 DUP7 DUP6 MSTORE SWAP1 SWAP2 MSTORE SWAP3 DUP3 KECCAK256 SLOAD DUP4 SLOAD SWAP1 SWAP3 SWAP2 DUP5 SWAP2 PUSH2 0x9D2 SWAP2 SWAP1 PUSH2 0x140D JUMP JUMPDEST DUP2 SLOAD DUP2 LT PUSH2 0x9E2 JUMPI PUSH2 0x9E2 PUSH2 0x1420 JUMP JUMPDEST SWAP1 PUSH1 0x0 MSTORE PUSH1 0x20 PUSH1 0x0 KECCAK256 ADD SLOAD SWAP1 POP PUSH1 0x1 DUP4 DUP1 SLOAD SWAP1 POP PUSH2 0xA00 SWAP2 SWAP1 PUSH2 0x140D JUMP JUMPDEST DUP3 LT ISZERO PUSH2 0xA4B JUMPI DUP1 DUP4 DUP4 DUP2 SLOAD DUP2 LT PUSH2 0xA1A JUMPI PUSH2 0xA1A PUSH2 0x1420 JUMP JUMPDEST PUSH1 0x0 SWAP2 DUP3 MSTORE PUSH1 0x20 DUP1 DUP4 KECCAK256 SWAP1 SWAP2 ADD SWAP3 SWAP1 SWAP3 SSTORE PUSH1 0x1 PUSH1 0x1 PUSH1 0xA0 SHL SUB DUP8 AND DUP2 MSTORE PUSH1 0x8 DUP3 MSTORE PUSH1 0x40 DUP1 DUP3 KECCAK256 DUP5 DUP4 MSTORE SWAP1 SWAP3 MSTORE KECCAK256 DUP3 SWAP1 SSTORE JUMPDEST DUP3 DUP1 SLOAD DUP1 PUSH2 0xA5B JUMPI PUSH2 0xA5B PUSH2 0x1436 JUMP JUMPDEST PUSH1 0x0 DUP3 DUP2 MSTORE PUSH1 0x20 DUP1 DUP3 KECCAK256 DUP4 ADD PUSH1 0x0 NOT SWAP1 DUP2 ADD DUP4 SWAP1 SSTORE SWAP1 SWAP3 ADD SWAP1 SWAP3 SSTORE PUSH1 0x1 PUSH1 0x1 PUSH1 0xA0 SHL SUB DUP8 AND DUP1 DUP4 MSTORE PUSH1 0x8 DUP3 MSTORE PUSH1 0x40 DUP1 DUP5 KECCAK256 DUP9 DUP6 MSTORE SWAP1 SWAP3 MSTORE DUP2 DUP4 KECCAK256 DUP4 SWAP1 SSTORE SWAP1 MLOAD DUP7 SWAP3 PUSH32 0x8A7922F72DC2A50A632ACDDE12B7D222AEFA2FDB7F3CA1364B419734569D0E80 SWAP2 LOG3 POP POP POP POP POP JUMP JUMPDEST PUSH1 0x6 SLOAD PUSH1 0x60 SWAP1 DUP2 SWAP1 PUSH8 0xFFFFFFFFFFFFFFFF DUP2 GT ISZERO PUSH2 0xAE6 JUMPI PUSH2 0xAE6 PUSH2 0x144C JUMP JUMPDEST PUSH1 0x40 MLOAD SWAP1 DUP1 DUP3 MSTORE DUP1 PUSH1 0x20 MUL PUSH1 0x20 ADD DUP3 ADD PUSH1 0x40 MSTORE DUP1 ISZERO PUSH2 0xB0F JUMPI DUP2 PUSH1 0x20 ADD PUSH1 0x20 DUP3 MUL DUP1 CALLDATASIZE DUP4 CALLDATACOPY ADD SWAP1 POP JUMPDEST POP PUSH1 0x6 SLOAD SWAP1 SWAP3 POP PUSH8 0xFFFFFFFFFFFFFFFF DUP2 GT ISZERO PUSH2 0xB2E JUMPI PUSH2 0xB2E PUSH2 0x144C JUMP JUMPDEST PUSH1 0x40 MLOAD SWAP1 DUP1 DUP3 MSTORE DUP1 PUSH1 0x20 MUL PUSH1 0x20 ADD DUP3 ADD PUSH1 0x40 MSTORE DUP1 ISZERO PUSH2 0xB61 JUMPI DUP2 PUSH1 0x20 ADD JUMPDEST PUSH1 0x60 DUP2 MSTORE PUSH1 0x20 ADD SWAP1 PUSH1 0x1 SWAP1 SUB SWAP1 DUP2 PUSH2 0xB4C JUMPI SWAP1 POP JUMPDEST POP SWAP1 POP PUSH1 0x0 JUMPDEST PUSH1 0x6 SLOAD DUP2 LT ISZERO PUSH2 0xDC4 JUMPI PUSH1 0x0 PUSH1 0x6 DUP3 DUP2 SLOAD DUP2 LT PUSH2 0xB86 JUMPI PUSH2 0xB86 PUSH2 0x1420 JUMP JUMPDEST PUSH1 0x0 SWAP2 DUP3 MSTORE PUSH1 0x20 DUP1 DUP4 KECCAK256 SWAP1 SWAP2 ADD SLOAD PUSH1 0x1 PUSH1 0x1 PUSH1 0xA0 SHL SUB AND DUP1 DUP4 MSTORE PUSH1 0x7 SWAP1 SWAP2 MSTORE PUSH1 0x40 DUP3 KECCAK256 DUP1 SLOAD SWAP2 SWAP4 POP SWAP2 SWAP1 PUSH8 0xFFFFFFFFFFFFFFFF DUP2 GT ISZERO PUSH2 0xBC8 JUMPI PUSH2 0xBC8 PUSH2 0x144C JUMP JUMPDEST PUSH1 0x40 MLOAD SWAP1 DUP1 DUP3 MSTORE DUP1 PUSH1 0x20 MUL PUSH1 0x20 ADD DUP3 ADD PUSH1 0x40 MSTORE DUP1 ISZERO PUSH2 0xBF1 JUMPI DUP2 PUSH1 0x20 ADD PUSH1 0x20 DUP3 MUL DUP1 CALLDATASIZE DUP4 CALLDATACOPY ADD SWAP1 POP JUMPDEST POP SWAP1 POP PUSH1 0x0 DUP1 JUMPDEST DUP4 SLOAD DUP2 LT ISZERO PUSH2 0xCBE JUMPI PUSH1 0x0 DUP5 DUP3 DUP2 SLOAD DUP2 LT PUSH2 0xC15 JUMPI PUSH2 0xC15 PUSH2 0x1420 JUMP JUMPDEST PUSH1 0x0 SWAP2 DUP3 MSTORE PUSH1 0x20 DUP1 DUP4 KECCAK256 SWAP1 SWAP2 ADD SLOAD PUSH1 0x1 PUSH1 0x1 PUSH1 0xA0 SHL SUB DUP10 AND DUP4 MSTORE PUSH1 0x3 DUP1 DUP4 MSTORE PUSH1 0x40 DUP1 DUP6 KECCAK256 DUP4 DUP7 MSTORE SWAP1 SWAP4 MSTORE SWAP2 SWAP1 SWAP3 KECCAK256 ADD SLOAD SWAP1 SWAP2 POP PUSH1 0xFF AND DUP1 ISZERO PUSH2 0xC7A JUMPI POP PUSH1 0x1 PUSH1 0x1 PUSH1 0xA0 SHL SUB DUP7 DUP2 AND PUSH1 0x0 SWAP1 DUP2 MSTORE PUSH1 0x4 PUSH1 0x20 SWAP1 DUP2 MSTORE PUSH1 0x40 DUP1 DUP4 KECCAK256 DUP6 DUP5 MSTORE SWAP1 SWAP2 MSTORE SWAP1 KECCAK256 SLOAD AND ISZERO JUMPDEST ISZERO PUSH2 0xCAB JUMPI DUP1 DUP5 DUP5 DUP2 MLOAD DUP2 LT PUSH2 0xC92 JUMPI PUSH2 0xC92 PUSH2 0x1420 JUMP JUMPDEST PUSH1 0x20 SWAP1 DUP2 MUL SWAP2 SWAP1 SWAP2 ADD ADD MSTORE DUP3 PUSH2 0xCA7 DUP2 PUSH2 0x1462 JUMP JUMPDEST SWAP4 POP POP JUMPDEST POP DUP1 PUSH2 0xCB6 DUP2 PUSH2 0x1462 JUMP JUMPDEST SWAP2 POP POP PUSH2 0xBF8 JUMP JUMPDEST POP PUSH1 0x0 DUP2 PUSH8 0xFFFFFFFFFFFFFFFF DUP2 GT ISZERO PUSH2 0xCDA JUMPI PUSH2 0xCDA PUSH2 0x144C JUMP JUMPDEST PUSH1 0x40 MLOAD SWAP1 DUP1 DUP3 MSTORE DUP1 PUSH1 0x20 MUL PUSH1 0x20 ADD DUP3 ADD PUSH1 0x40 MSTORE DUP1 ISZERO PUSH2 0xD03 JUMPI DUP2 PUSH1 0x20 ADD PUSH1 0x20 DUP3 MUL DUP1 CALLDATASIZE DUP4 CALLDATACOPY ADD SWAP1 POP JUMPDEST POP SWAP1 POP PUSH1 0x0 JUMPDEST DUP3 DUP2 LT ISZERO PUSH2 0xD5A JUMPI DUP4 DUP2 DUP2 MLOAD DUP2 LT PUSH2 0xD23 JUMPI PUSH2 0xD23 PUSH2 0x1420 JUMP JUMPDEST PUSH1 0x20 MUL PUSH1 0x20 ADD ADD MLOAD DUP3 DUP3 DUP2 MLOAD DUP2 LT PUSH2 0xD3D JUMPI PUSH2 0xD3D PUSH2 0x1420 JUMP JUMPDEST PUSH1 0x20 SWAP1 DUP2 MUL SWAP2 SWAP1 SWAP2 ADD ADD MSTORE DUP1 PUSH2 0xD52 DUP2 PUSH2 0x1462 JUMP JUMPDEST SWAP2 POP POP PUSH2 0xD09 JUMP JUMPDEST POP DUP5 DUP9 DUP8 DUP2 MLOAD DUP2 LT PUSH2 0xD6E JUMPI PUSH2 0xD6E PUSH2 0x1420 JUMP JUMPDEST PUSH1 0x20 MUL PUSH1 0x20 ADD ADD SWAP1 PUSH1 0x1 PUSH1 0x1 PUSH1 0xA0 SHL SUB AND SWAP1 DUP2 PUSH1 0x1 PUSH1 0x1 PUSH1 0xA0 SHL SUB AND DUP2 MSTORE POP POP DUP1 DUP8 DUP8 DUP2 MLOAD DUP2 LT PUSH2 0xDA1 JUMPI PUSH2 0xDA1 PUSH2 0x1420 JUMP JUMPDEST PUSH1 0x20 MUL PUSH1 0x20 ADD ADD DUP2 SWAP1 MSTORE POP POP POP POP POP POP DUP1 DUP1 PUSH2 0xDBC SWAP1 PUSH2 0x1462 JUMP JUMPDEST SWAP2 POP POP PUSH2 0xB67 JUMP JUMPDEST POP SWAP1 SWAP2 JUMP JUMPDEST PUSH2 0xDD1 PUSH2 0x11E5 JUMP JUMPDEST PUSH1 0x1 PUSH1 0x1 PUSH1 0xA0 SHL SUB DUP4 AND PUSH1 0x0 SWAP1 DUP2 MSTORE PUSH1 0x3 PUSH1 0x20 DUP2 DUP2 MSTORE PUSH1 0x40 DUP1 DUP5 KECCAK256 DUP7 DUP6 MSTORE SWAP1 SWAP2 MSTORE SWAP1 SWAP2 KECCAK256 SWAP1 DUP2 ADD SLOAD PUSH1 0xFF AND PUSH2 0xE48 JUMPI PUSH1 0x40 MLOAD PUSH3 0x461BCD PUSH1 0xE5 SHL DUP2 MSTORE PUSH1 0x20 PUSH1 0x4 DUP3 ADD MSTORE PUSH1 0x17 PUSH1 0x24 DUP3 ADD MSTORE PUSH32 0x4E4654206E6F74206C697374656420666F722072656E74000000000000000000 PUSH1 0x44 DUP3 ADD MSTORE PUSH1 0x64 ADD PUSH2 0x460 JUMP JUMPDEST DUP1 PUSH1 0x2 ADD SLOAD DUP3 GT ISZERO PUSH2 0xE9C JUMPI PUSH1 0x40 MLOAD PUSH3 0x461BCD PUSH1 0xE5 SHL DUP2 MSTORE PUSH1 0x20 PUSH1 0x4 DUP3 ADD MSTORE PUSH1 0x18 PUSH1 0x24 DUP3 ADD MSTORE PUSH32 0x4475726174696F6E2065786365656473206D6178696D756D0000000000000000 PUSH1 0x44 DUP3 ADD MSTORE PUSH1 0x64 ADD PUSH2 0x460 JUMP JUMPDEST DUP2 DUP2 PUSH1 0x1 ADD SLOAD PUSH2 0xEAC SWAP2 SWAP1 PUSH2 0x147B JUMP JUMPDEST CALLVALUE LT ISZERO PUSH2 0xEF2 JUMPI PUSH1 0x40 MLOAD PUSH3 0x461BCD PUSH1 0xE5 SHL DUP2 MSTORE PUSH1 0x20 PUSH1 0x4 DUP3 ADD MSTORE PUSH1 0x14 PUSH1 0x24 DUP3 ADD MSTORE PUSH20 0x125B9CDD59999A58DA595B9D081C185E5B595B9D PUSH1 0x62 SHL PUSH1 0x44 DUP3 ADD MSTORE PUSH1 0x64 ADD PUSH2 0x460 JUMP JUMPDEST PUSH1 0x1 PUSH1 0x1 PUSH1 0xA0 SHL SUB DUP5 DUP2 AND PUSH1 0x0 SWAP1 DUP2 MSTORE PUSH1 0x4 PUSH1 0x20 SWAP1 DUP2 MSTORE PUSH1 0x40 DUP1 DUP4 KECCAK256 DUP8 DUP5 MSTORE SWAP1 SWAP2 MSTORE SWAP1 KECCAK256 SLOAD AND ISZERO PUSH2 0xF5D JUMPI PUSH1 0x40 MLOAD PUSH3 0x461BCD PUSH1 0xE5 SHL DUP2 MSTORE PUSH1 0x20 PUSH1 0x4 DUP3 ADD MSTORE PUSH1 0x15 PUSH1 0x24 DUP3 ADD MSTORE PUSH21 0x139195081A5CC8185B1C9958591E481C995B9D1959 PUSH1 0x5A SHL PUSH1 0x44 DUP3 ADD MSTORE PUSH1 0x64 ADD PUSH2 0x460 JUMP JUMPDEST PUSH1 0x1 PUSH1 0x1 PUSH1 0xA0 SHL SUB DUP5 AND PUSH1 0x0 SWAP1 DUP2 MSTORE PUSH1 0x4 PUSH1 0x20 SWAP1 DUP2 MSTORE PUSH1 0x40 DUP1 DUP4 KECCAK256 DUP7 DUP5 MSTORE SWAP1 SWAP2 MSTORE SWAP1 KECCAK256 DUP1 SLOAD PUSH1 0x1 PUSH1 0x1 PUSH1 0xA0 SHL SUB NOT AND CALLER OR SWAP1 SSTORE PUSH2 0xF9D DUP3 PUSH3 0x15180 PUSH2 0x147B JUMP JUMPDEST PUSH2 0xFA7 SWAP1 TIMESTAMP PUSH2 0x1492 JUMP JUMPDEST PUSH1 0x1 PUSH1 0x1 PUSH1 0xA0 SHL SUB DUP1 DUP7 AND PUSH1 0x0 SWAP1 DUP2 MSTORE PUSH1 0x5 PUSH1 0x20 SWAP1 DUP2 MSTORE PUSH1 0x40 DUP1 DUP4 KECCAK256 DUP9 DUP5 MSTORE SWAP1 SWAP2 MSTORE DUP1 DUP3 KECCAK256 SWAP4 SWAP1 SWAP4 SSTORE DUP4 SLOAD SWAP3 MLOAD SWAP3 SWAP1 SWAP2 AND SWAP2 CALLVALUE DUP1 ISZERO PUSH2 0x8FC MUL SWAP3 SWAP1 SWAP2 SWAP1 DUP2 DUP2 DUP2 DUP6 DUP9 DUP9 CALL SWAP4 POP POP POP POP ISZERO DUP1 ISZERO PUSH2 0x1001 JUMPI RETURNDATASIZE PUSH1 0x0 DUP1 RETURNDATACOPY RETURNDATASIZE PUSH1 0x0 REVERT JUMPDEST POP CALLER PUSH1 0x1 PUSH1 0x1 PUSH1 0xA0 SHL SUB AND DUP4 DUP6 PUSH1 0x1 PUSH1 0x1 PUSH1 0xA0 SHL SUB AND PUSH32 0x4F4AB304D681E6F116067260164B7BFDA1F47A254834CC6320CF5F8F0A436108 DUP6 PUSH1 0x40 MLOAD PUSH2 0x1048 SWAP2 DUP2 MSTORE PUSH1 0x20 ADD SWAP1 JUMP JUMPDEST PUSH1 0x40 MLOAD DUP1 SWAP2 SUB SWAP1 LOG4 POP PUSH2 0x105B PUSH1 0x1 PUSH1 0x0 SSTORE JUMP JUMPDEST POP POP POP JUMP JUMPDEST PUSH2 0x1068 PUSH2 0x1139 JUMP JUMPDEST PUSH1 0x1 PUSH1 0x1 PUSH1 0xA0 SHL SUB DUP2 AND PUSH2 0x10CD JUMPI PUSH1 0x40 MLOAD PUSH3 0x461BCD PUSH1 0xE5 SHL DUP2 MSTORE PUSH1 0x20 PUSH1 0x4 DUP3 ADD MSTORE PUSH1 0x26 PUSH1 0x24 DUP3 ADD MSTORE PUSH32 0x4F776E61626C653A206E6577206F776E657220697320746865207A65726F2061 PUSH1 0x44 DUP3 ADD MSTORE PUSH6 0x646472657373 PUSH1 0xD0 SHL PUSH1 0x64 DUP3 ADD MSTORE PUSH1 0x84 ADD PUSH2 0x460 JUMP JUMPDEST PUSH2 0x10D6 DUP2 PUSH2 0x1193 JUMP JUMPDEST POP JUMP JUMPDEST PUSH1 0x1 PUSH1 0x1 PUSH1 0xA0 SHL SUB DUP3 AND PUSH1 0x0 SWAP1 DUP2 MSTORE PUSH1 0x3 PUSH1 0x20 DUP2 DUP2 MSTORE PUSH1 0x40 DUP1 DUP5 KECCAK256 DUP6 DUP6 MSTORE SWAP1 SWAP2 MSTORE DUP3 KECCAK256 ADD SLOAD PUSH1 0xFF AND DUP1 ISZERO PUSH2 0x1130 JUMPI POP PUSH1 0x1 PUSH1 0x1 PUSH1 0xA0 SHL SUB DUP4 DUP2 AND PUSH1 0x0 SWAP1 DUP2 MSTORE PUSH1 0x4 PUSH1 0x20 SWAP1 DUP2 MSTORE PUSH1 0x40 DUP1 DUP4 KECCAK256 DUP7 DUP5 MSTORE SWAP1 SWAP2 MSTORE SWAP1 KECCAK256 SLOAD AND ISZERO JUMPDEST SWAP1 POP JUMPDEST SWAP3 SWAP2 POP POP JUMP JUMPDEST PUSH1 0x1 SLOAD PUSH1 0x1 PUSH1 0x1 PUSH1 0xA0 SHL SUB AND CALLER EQ PUSH2 0x889 JUMPI PUSH1 0x40 MLOAD PUSH3 0x461BCD PUSH1 0xE5 SHL DUP2 MSTORE PUSH1 0x20 PUSH1 0x4 DUP3 ADD DUP2 SWAP1 MSTORE PUSH1 0x24 DUP3 ADD MSTORE PUSH32 0x4F776E61626C653A2063616C6C6572206973206E6F7420746865206F776E6572 PUSH1 0x44 DUP3 ADD MSTORE PUSH1 0x64 ADD PUSH2 0x460 JUMP JUMPDEST PUSH1 0x1 DUP1 SLOAD PUSH1 0x1 PUSH1 0x1 PUSH1 0xA0 SHL SUB DUP4 DUP2 AND PUSH1 0x1 PUSH1 0x1 PUSH1 0xA0 SHL SUB NOT DUP4 AND DUP2 OR SWAP1 SWAP4 SSTORE PUSH1 0x40 MLOAD SWAP2 AND SWAP2 SWAP1 DUP3 SWAP1 PUSH32 0x8BE0079C531659141344CD1FD0A4F28419497F9722A3DAAFE3B4186F6B6457E0 SWAP1 PUSH1 0x0 SWAP1 LOG3 POP POP JUMP JUMPDEST PUSH1 0x2 PUSH1 0x0 SLOAD SUB PUSH2 0x1237 JUMPI PUSH1 0x40 MLOAD PUSH3 0x461BCD PUSH1 0xE5 SHL DUP2 MSTORE PUSH1 0x20 PUSH1 0x4 DUP3 ADD MSTORE PUSH1 0x1F PUSH1 0x24 DUP3 ADD MSTORE PUSH32 0x5265656E7472616E637947756172643A207265656E7472616E742063616C6C00 PUSH1 0x44 DUP3 ADD MSTORE PUSH1 0x64 ADD PUSH2 0x460 JUMP JUMPDEST PUSH1 0x2 PUSH1 0x0 SSTORE JUMP JUMPDEST PUSH1 0x1 PUSH1 0x1 PUSH1 0xA0 SHL SUB DUP2 AND DUP2 EQ PUSH2 0x10D6 JUMPI PUSH1 0x0 DUP1 REVERT JUMPDEST PUSH1 0x0 DUP1 PUSH1 0x40 DUP4 DUP6 SUB SLT ISZERO PUSH2 0x1266 JUMPI PUSH1 0x0 DUP1 REVERT JUMPDEST DUP3 CALLDATALOAD PUSH2 0x1271 DUP2 PUSH2 0x123E JUMP JUMPDEST SWAP5 PUSH1 0x20 SWAP4 SWAP1 SWAP4 ADD CALLDATALOAD SWAP4 POP POP POP JUMP JUMPDEST PUSH1 0x0 DUP1 PUSH1 0x0 DUP1 PUSH1 0x80 DUP6 DUP8 SUB SLT ISZERO PUSH2 0x1295 JUMPI PUSH1 0x0 DUP1 REVERT JUMPDEST DUP5 CALLDATALOAD PUSH2 0x12A0 DUP2 PUSH2 0x123E JUMP JUMPDEST SWAP7 PUSH1 0x20 DUP7 ADD CALLDATALOAD SWAP7 POP PUSH1 0x40 DUP7 ADD CALLDATALOAD SWAP6 PUSH1 0x60 ADD CALLDATALOAD SWAP5 POP SWAP3 POP POP POP JUMP JUMPDEST PUSH1 0x40 DUP1 DUP3 MSTORE DUP4 MLOAD SWAP1 DUP3 ADD DUP2 SWAP1 MSTORE PUSH1 0x0 SWAP1 PUSH1 0x20 SWAP1 PUSH1 0x60 DUP5 ADD SWAP1 DUP3 DUP8 ADD DUP5 JUMPDEST DUP3 DUP2 LT ISZERO PUSH2 0x12FC JUMPI DUP2 MLOAD PUSH1 0x1 PUSH1 0x1 PUSH1 0xA0 SHL SUB AND DUP5 MSTORE SWAP3 DUP5 ADD SWAP3 SWAP1 DUP5 ADD SWAP1 PUSH1 0x1 ADD PUSH2 0x12D7 JUMP JUMPDEST POP POP POP DUP4 DUP2 SUB DUP3 DUP6 ADD MSTORE DUP5 MLOAD DUP1 DUP3 MSTORE DUP3 DUP3 ADD SWAP1 PUSH1 0x5 DUP2 SWAP1 SHL DUP4 ADD DUP5 ADD DUP8 DUP6 ADD PUSH1 0x0 JUMPDEST DUP4 DUP2 LT ISZERO PUSH2 0x1372 JUMPI DUP6 DUP4 SUB PUSH1 0x1F NOT ADD DUP6 MSTORE DUP2 MLOAD DUP1 MLOAD DUP1 DUP6 MSTORE SWAP1 DUP9 ADD SWAP1 DUP9 DUP6 ADD SWAP1 PUSH1 0x0 JUMPDEST DUP2 DUP2 LT ISZERO PUSH2 0x135D JUMPI DUP4 MLOAD DUP4 MSTORE SWAP3 DUP11 ADD SWAP3 SWAP2 DUP11 ADD SWAP2 PUSH1 0x1 ADD PUSH2 0x1341 JUMP JUMPDEST POP POP SWAP6 DUP9 ADD SWAP6 SWAP4 POP POP SWAP1 DUP7 ADD SWAP1 PUSH1 0x1 ADD PUSH2 0x131E JUMP JUMPDEST POP SWAP1 SWAP10 SWAP9 POP POP POP POP POP POP POP POP POP JUMP JUMPDEST PUSH1 0x0 DUP1 PUSH1 0x0 PUSH1 0x60 DUP5 DUP7 SUB SLT ISZERO PUSH2 0x1396 JUMPI PUSH1 0x0 DUP1 REVERT JUMPDEST DUP4 CALLDATALOAD PUSH2 0x13A1 DUP2 PUSH2 0x123E JUMP JUMPDEST SWAP6 PUSH1 0x20 DUP6 ADD CALLDATALOAD SWAP6 POP PUSH1 0x40 SWAP1 SWAP5 ADD CALLDATALOAD SWAP4 SWAP3 POP POP POP JUMP JUMPDEST PUSH1 0x0 PUSH1 0x20 DUP3 DUP5 SUB SLT ISZERO PUSH2 0x13C8 JUMPI PUSH1 0x0 DUP1 REVERT JUMPDEST DUP2 CALLDATALOAD PUSH2 0x13D3 DUP2 PUSH2 0x123E JUMP JUMPDEST SWAP4 SWAP3 POP POP POP JUMP JUMPDEST PUSH1 0x0 PUSH1 0x20 DUP3 DUP5 SUB SLT ISZERO PUSH2 0x13EC JUMPI PUSH1 0x0 DUP1 REVERT JUMPDEST DUP2 MLOAD PUSH2 0x13D3 DUP2 PUSH2 0x123E JUMP JUMPDEST PUSH4 0x4E487B71 PUSH1 0xE0 SHL PUSH1 0x0 MSTORE PUSH1 0x11 PUSH1 0x4 MSTORE PUSH1 0x24 PUSH1 0x0 REVERT JUMPDEST DUP2 DUP2 SUB DUP2 DUP2 GT ISZERO PUSH2 0x1133 JUMPI PUSH2 0x1133 PUSH2 0x13F7 JUMP JUMPDEST PUSH4 0x4E487B71 PUSH1 0xE0 SHL PUSH1 0x0 MSTORE PUSH1 0x32 PUSH1 0x4 MSTORE PUSH1 0x24 PUSH1 0x0 REVERT JUMPDEST PUSH4 0x4E487B71 PUSH1 0xE0 SHL PUSH1 0x0 MSTORE PUSH1 0x31 PUSH1 0x4 MSTORE PUSH1 0x24 PUSH1 0x0 REVERT JUMPDEST PUSH4 0x4E487B71 PUSH1 0xE0 SHL PUSH1 0x0 MSTORE PUSH1 0x41 PUSH1 0x4 MSTORE PUSH1 0x24 PUSH1 0x0 REVERT JUMPDEST PUSH1 0x0 PUSH1 0x1 DUP3 ADD PUSH2 0x1474 JUMPI PUSH2 0x1474 PUSH2 0x13F7 JUMP JUMPDEST POP PUSH1 0x1 ADD SWAP1 JUMP JUMPDEST DUP1 DUP3 MUL DUP2 ISZERO DUP3 DUP3 DIV DUP5 EQ OR PUSH2 0x1133 JUMPI PUSH2 0x1133 PUSH2 0x13F7 JUMP JUMPDEST DUP1 DUP3 ADD DUP1 DUP3 GT ISZERO PUSH2 0x1133 JUMPI PUSH2 0x1133 PUSH2 0x13F7 JUMP INVALID LOG2 PUSH5 0x6970667358 0x22 SLT KECCAK256 0xD6 0xAA SDIV 0x29 SLT CREATE 0xE SWAP16 SGT 0x2D CALL PUSH21 0xD83E453698D40DBE429A13B179D3B36D0C1A096164 PUSH20 0x6F6C634300081300330000000000000000000000 "},"methodIdentifiers":{"currentRenter(address,uint256)":"ef00df76","endRental(address,uint256)":"1157decb","getActiveListings()":"87c35bc0","getRentalInfo(address,uint256)":"3ec966ad","isAvailableForRent(address,uint256)":"f33d8b59","listNFT(address,uint256,uint256,uint256)":"3c44a5f0","listings(address,uint256)":"0007df30","owner()":"8da5cb5b","renounceOwnership()":"715018a6","rentNFT(address,uint256,uint256)":"d68a36ff","rentalEndTime(address,uint256)":"205a2bc1","transferOwnership(address)":"f2fde38b","unlistNFT(address,uint256)":"7fc27efd"}}}}}